:020000040800F2
:1000000070060020290200083102000833020008AF
:10001000350200083702000839020008000000001D
:100020000000000000000000000000003B0200088B
:100030003D020008000000003F02000841020008E5
:10004000430200084302000843020008430200087C
:100050004302000843020008E502000843020008CA
:10006000430200084302000843020008430200085C
:10007000430200084302000843020008430200084C
:10008000430200084302000843020008430200083C
:10009000430200084302000843020008430200082C
:1000A000430200084302000843020008430200081C
:1000B00095070008430200084302000843020008B5
:1000C00043020008430200084302000843020008FC
:1000D00043020008430200084302000843020008EC
:1000E00043020008430200084302000843020008DC
:1000F00043020008430200084302000843020008CC
:1001000043020008430200084302000843020008BB
:1001100043020008430200084302000843020008AB
:10012000430200084302000843020008430200089B
:10013000430200084302000843020008430200088B
:10014000430200084302000843020008430200087B
:10015000430200084302000843020008430200086B
:10016000430200084302000843020008430200085B
:10017000430200084302000843020008430200084B
:10018000430200084302000800F002F800F03CF8C7
:100190000AA090E8000C82448344AAF10107DA45E2
:1001A00001D100F031F8AFF2090EBAE80F0013F0F8
:1001B000010F18BFFB1A43F001031847A007000006
:1001C000C0070000103A24BF78C878C1FAD8520797
:1001D00024BF30C830C144BF04680C6070470000C1
:1001E0000023002400250026103A28BF78C1FBD840
:1001F000520728BF30C148BF0B6070471FB500F0E1
:10020000A7FB1FBD10B510BD00F031F81146FFF778
:10021000F5FF00F083FB00F04FF803B4FFF7F2FFA7
:1002200003BC00F057F80000094880470948004720
:10023000FEE7FEE7FEE7FEE7FEE7FEE7FEE7FEE796
:10024000FEE7FEE704480549054A064B70470000F3
:100250002D070008890100087000002070060020AA
:10026000700200207002002070477047704775468A
:1002700000F02CF8AE4605006946534620F0070012
:10028000854618B020B5FFF7DDFFBDE820404FF0F0
:1002900000064FF000074FF000084FF0000B21F070
:1002A0000701AC46ACE8C009ACE8C009ACE8C0093D
:1002B000ACE8C0098D46704710B50446AFF3008026
:1002C0002046BDE81040FFF7A8BF00000048704777
:1002D0000C00002001491820ABBEFEE726000200FA
:1002E0007047000010B5012000F020F890B1012106
:1002F000094800F0D9F828B14FF40051074800F040
:10030000DCF804E04FF40051044800F0D8F8012074
:1003100000F006F810BD000000000240000C024092
:100320000149086070470000143C0140014600206C
:10033000034A12680A400AB1012000E00020704719
:10034000143C0140002123498279002A3AD00A4610
:10035000126803689A430B461A600A1D1268036804
:100360009A430B1D1A60027911440A6803681A4304
:100370000A60184A0832126803689A43154B08331A
:100380001A601A1D126803689A43124B0C331A60E4
:100390004279102A0ED11A1F126803681A430D4BB6
:1003A00008331A601A1D126803681A43094B0C338C
:1003B0001A600DE00749427911440A6803681A433C
:1003C0000A6005E0027911440A6803689A430A60EA
:1003D00070470000003C014008B506208DF8000081
:1003E00000208DF801008DF8020001208DF8030037
:1003F000684600F099F808BD08B51C208DF800008B
:1004000000208DF8010001208DF802008DF8030016
:10041000684600F089F808BDF0B50A4600210023BF
:10042000002400BF3DE0012505FA01F3156805EA47
:1004300003049C4234D105684F000326BE40B543F7
:10044000056015794E00B54006683543056015799D
:10045000012D02D01579022D16D185684F00032693
:10046000BE40B543856055794E00B540866835433A
:100470008560456801268E40B5434560456896799C
:100480008E40B6B235434560C5684F000326BE4076
:10049000B543C560D5794E00B540C6683543C560E3
:1004A000491C1029BFD3F0BD0246002013690B4040
:1004B0000BB1012000E000207047418370470183A9
:1004C000704700001CB50121084600F069F80020C3
:1004D0008DF804008DF806000120009002208DF8B0
:1004E000070003208DF8050069460248FFF794FFD6
:1004F0001CBD0000000002401CB50121880300F073
:100500006FF80021084600F07BF8012000908DF87C
:10051000060000208DF8040008208DF805006846CC
:10052000FFF710FF1CBD000070B5002100230F2253
:10053000C4781CB3174C246804F4E064C4F5E06488
:10054000C4F30721C1F10404E3B20A4144789C409A
:10055000E1B28478144021430C07210E0E4C05783B
:100560006155047804F01F050124AC4005786D1135
:10057000AD0005F1E025C5F8004109E0047804F07C
:100580001F050124AC40054D0678761145F826403C
:1005900070BD00000CED00E000E400E080E100E050
:1005A00029B1064A12680243044B1A6004E0034A68
:1005B00012688243014B1A607047000030380240D5
:1005C00029B1064A12680243044B1A6004E0034A48
:1005D00012688243014B1A607047000040380240A5
:1005E00029B1064A12680243044B1A6004E0034A28
:1005F00012688243014B1A60704700004438024081
:1006000030B500228B071C0F0F2303FA04F20B4BAB
:100610008C1053F824309343084C8D1044F8253047
:1006200023468C1053F824308C07240F00FA04F46E
:100630002343024C8D1044F8253030BD083801406A
:100640000CB50020019000903448006840F48030E0
:100650003249086000BF3148006800F40030009063
:100660000198401C0190009818B90198B0F5A04F6E
:10067000F1D12A48006800F4003010B10120009048
:1006800001E0002000900098012846D12348403026
:10069000006840F0805021494031086020480068DF
:1006A00040F440401E4908601C48083000681B495F
:1006B000083108600846006840F4004008600846B9
:1006C000006840F4A05008601648091F0860081F21
:1006D000006840F08070091F086000BF0F48006884
:1006E00000F000700028F9D040F205700E49086053
:1006F0000A480830006820F0030008490831086003
:100700000846006840F00200086000BF0348083057
:10071000006800F00C000828F8D10CBD0038024039
:100720000070004008544007003C024010B51548D6
:10073000006840F47000134908601348006840F0F6
:1007400001001149086000200F49083108600E4877
:1007500000680E4908400C4908600D48091D0860F2
:10076000081F006820F48020091F08600020064947
:100770000C310860FFF764FF4FF0006001498039D9
:10078000086010BD88ED00E000380240FFFFF6FE73
:100790001030002410B50121880700F029F8104816
:1007A000006840B94FF400410E48FFF788FE012071
:1007B0000B49086007E04FF400410A48FFF77DFE4F
:1007C0000020074908600848006828B10748006809
:1007D000401C0649086002E000200449086010BD82
:1007E00000000020000C024008000020040000204F
:1007F000CA430282704721B1028842F0010202809E
:1008000004E002884FF6FE731A40028070471AB166
:1008100083890B43838102E083898B438381704703
:1008200000220288184B98420ED0184B98420BD0E9
:10083000B0F1804F08D0164B984205D0154B984226
:1008400002D0154B984204D14FF68F731A404B8853
:100850001A43124B984207D0114B984204D04FF6DE
:10086000FF431A400B891A4302804B68C3620B880E
:100870000385054B984202D0044B984201D18B7AF4
:100880000386012383827047000001400004014079
:100890000004004000080040000C00400010004030
:1008A000001400401CB501210820FFF779FE4FF429
:1008B0007040009001208DF8040000208DF80600A3
:1008C0008DF8070003208DF8050069460148FFF701
:1008D000A3FD1CBD000C02400EB501210846FFF728
:1008E0006FFE42F2CF00ADF800000020ADF802002C
:1008F00042F2107001900020ADF8080069464FF0F8
:100900008040FFF78DFF01218807FFF774FF012268
:1009100011469007FFF77BFF0EBD000000200A493B
:1009200008600A490860FFF7BDFFFFF765FDFFF7A4
:10093000D3FFFFF751FDFFF7DFFDFFF7C3FD02E037
:10094000002002490860FBE70400002008000020A6
:100950004FF04070E1EE100A704700007C0900087B
:10096000000000200C000000C401000888090008F5
:100970000C00002064060000E001000800000000F8
:0809800000000000000000006F
:0400000508000229C4
:00000001FF
